:020000040000FA
:1000000083018A010000912809000000000000001F
:10001000003023078A001030220703188A0A820062
:100020003F3406345B344F3466346D347D340734EA
:100030007F346F3477347C3439345E3479347134BE
:10004000BF348634DB34CF34E634ED34FD348734CA
:10005000FF34EF34F734FC34B934DE34F934F1349E
:100060000034B03422344E346D34D234DA34203497
:1000700039340F34723470340C3440348034523498
:100080003F3406345B344F3466346D347D3407348A
:100090007F346F3409340D34613441344334D33404
:1000A0009F3477347C3439345E34793471343D3460
:1000B000743430341E3475343834553454345C342C
:1000C0007334673433346D3478343E341C346A34DA
:1000D00076346E345B34393464340F34233408346A
:1000E00020345F347C3458345E347B3471346F3464
:1000F000743410340E3475341834553454345C343C
:100100007334673450346D3478343E341C346A347C
:1001100076346E345B34393430340F340134003487
:10012000633464006A3095001830960000308E0009
:1001300000308F00313090000B3097005F30A0000E
:10014000213084008001840AA00BA2288316873006
:100150009F00831200308500003086000030870049
:100160008316FF308500FF308600FF308700811343
:1001700083120C1920160C1D20120C1DBD280C1109
:1001800064002014201CCA28A01CC8282010C928DC
:10019000A014CB28A010201CCF2883168601831220
:1001A0002014051CD4282010201CD9280530B300A9
:1001B000B401201C682920191529A01183160317E2
:1001C0008C18FA288312031332080319FD28B2038E
:1001D00003178D0A03132F3032078400000803171A
:1001E0008C0083168C130C1555308D00AA308D00B1
:1001F0008C140C1183120313A015A01914292015B7
:10020000031700308D0083168C130C1483120C0816
:100210000313B300031701308D0083168C130C14E5
:1002200083120C080313B4006829A0118316031766
:100230008C18322983120313320803193529B203AB
:1002400003178D0A03132F303207840000080317A9
:100250008C0083168C130C1555308D00AA308D0040
:100260008C140C1183120313A015A019682903170D
:1002700000308D0083168C130C1483120C080313AA
:10028000B500031701308D0083168C130C148312F4
:100290000C080313B60035083302031D5429360831
:1002A0003402031D542968290130B2003408AF001C
:1002B000031700308D000313330803178C008316D7
:1002C0008C130C1555308D00AA308D008C140C1138
:1002D000831203132014851E6E292010201C7429FC
:1002E0003308B7003408B8002014201CDC29B030D3
:1002F000B900BA0137083902031D862938083A02C5
:10030000031D86298030B700B801D3293708A20021
:100310003808A300A601A701A01223082706A10000
:100320002608A2022708031C270FA302A11F9E294B
:1003300023082706A100A11B9E29A016A01EA32901
:10034000A31BA012A529A31BA016A01AA829AC299B
:100350002030B700B801D3293708A2003808A3001D
:100360008130A600A701A01223082706A1002608B5
:10037000A2022708031C270FA302A11FC5292308D7
:100380002706A100A11BC529A016A01ECA29A31BD0
:10039000A012CC29A31BA016A01ACF29D029D3299B
:1003A0002030B700B8013708A2003808A3000820A1
:1003B000B900BA01390886008A110A12B828DF2963
:02400E00723FFF
:00000001FF
