:020000040000FA
:1000000083018A010000912809000000000000001F
:10001000003023078A001030220703188A0A820062
:100020003F3406345B344F3466346D347D340734EA
:100030007F346F3477347C3439345E3479347134BE
:10004000BF348634DB34CF34E634ED34FD348734CA
:10005000FF34EF34F734FC34B934DE34F934F1349E
:100060000034B03422344E346D34D234DA34203497
:1000700039340F34723470340C3440348034523498
:100080003F3406345B344F3466346D347D3407348A
:100090007F346F3409340D34613441344334D33404
:1000A0009F3477347C3439345E34793471343D3460
:1000B000743430341E3475343834553454345C342C
:1000C0007334673433346D3478343E341C346A34DA
:1000D00076346E345B34393464340F34233408346A
:1000E00020345F347C3458345E347B3471346F3464
:1000F000743410340E3475341834553454345C343C
:100100007334673450346D3478343E341C346A347C
:1001100076346E345B34393430340F340134003487
:1001200063346400E23095000430960000308E00A5
:1001300000308F00313090000B3097005F30A0000E
:10014000213084008001840AA00BA22807309F0080
:1001500000308500003086008316FF308500FF30B8
:100160008600811383120C1920160C1D20120C1D01
:10017000B7280C1164002018BF282014B301A01464
:10018000A01CC428831686018312A014051EC9284A
:10019000A010A01CD128201DCF28A010D0282015E9
:1001A000D2282011A01CF628A010A019F528A0150F
:1001B000B30A0F30A200A01222083306A1003308B0
:1001C000A202A11FE92822083306A100A11BE928E9
:1001D000A016A01EEE28A21BA012F028A21BA0169B
:1001E000A01AF328F528B301A014F728A011A01431
:1001F000A01C5B29B030B400B5013308A200003068
:10020000A30022083402031D0C2923083502031D14
:100210000C298030B30052293308A200A601A01295
:1002200022082606A1002608A202A11F1D292208D5
:100230002606A100A11B1D29A016A01E2229A21B73
:10024000A0122429A21BA016A01A27292A2920308F
:10025000B30052293308A2000030B31BFF30A300C3
:100260008130A600A701A01223082706A1002608B6
:10027000A2022708031C270FA302A11F4529230858
:100280002706A100A11B4529A016A01E4A29A31BD1
:10029000A0124C29A31BA016A01A4F29502952299D
:1002A0002030B3003308A2000030A3000820B400BF
:0E02B000B501340886008A110A12B2285E29B0
:02400E00623F0F
:00000001FF
