:020000040000FA
:1000000083018A010000AF28090000000000000001
:10001000A701A6010310A50CA40C1030AE00031C10
:1000200017282208A6070318A70A2308A707031002
:10003000A70CA60CA50CA40CAE0B0F280800A80159
:10004000A7010310A60CA50CA40C1830AE00031CCD
:100050002F282208A70723080318230FA807031037
:10006000A80CA70CA60CA50CA40CAE0B2728080006
:1000700023082706A100A71F4228A609A709A60A48
:100080000319A70AA31F4928A209A309A20A031951
:10009000A30AA901A80103101130AE00A20DA30DFF
:1000A000AE0303196728A80DA90D2608A802031C92
:1000B000A9032708A902A91F65282608A80703186D
:1000C000A90A2708A90703104E2803144E28A11FC8
:1000D0000800A209A309A20A0319A30A0800240818
:1000E0002706A1008A110A12A71F7B28A609A709C3
:1000F000A60A0319A70AA41F8528A209A309A4090F
:10010000A20A0319A30A0319A40AA901A80103104A
:100110001930AE00A20DA30DA40DAE030319A4283F
:10012000A80DA90D2608A802031CA9032708A902E7
:10013000A91FA2282608A8070318A90A2708A907A3
:1001400003108A2803148A28A11F0800A209A30902
:10015000A409A20A0319A30A0319A40A0800640047
:100160006A3095001830960000308E0000308F0005
:10017000313090000B3097005F30A00021308400B8
:100180008001840AA00BC028831687309F00831249
:100190000030850000308600003087008316FF3075
:1001A0008500FE308600BF30870081132030990023
:1001B000203098008312903098000C19A0170C1D65
:1001C000A0130C1DE1280C1164002014201CEA2847
:1001D0008316860183122014201C16293308A200DE
:1001E0003230A600341022082606A1002608A202FA
:1001F000A11F002922082606A100A11B00293414F2
:10020000341C0529A21B34100729A21B34143418EE
:100210000A290C29B30A1229B301A0181129A01424
:100220001229A010A018152920101729B301201891
:100230002015201C2011201420191F292010201CFB
:10024000372981309F00831680309F008312213030
:10025000A300A30B29291F151F192C291E08B6005E
:1002600083161E088312B500831680309F00831208
:100270002014201CEA29A0113508A2003608A3008A
:100280002D30A6000130A700341023082706A10056
:100290002608A2022708031C270FA302A11F562924
:1002A00023082706A100A11B56293414341C5B29FE
:1002B000A31B34105D29A31B341434186029612951
:1002C000A015A01D93293508B7003608B800963050
:1002D000A600A7012608B7022708031C270FB802AB
:1002E0003708A4003808A5004B30A200A30108205D
:1002F0002408B7002508B8003708A2003808A30072
:100300009630A600A7018A110A1238202208B700E9
:100310002308B8004B30A600A7012608B707270816
:100320000318270FB807A0113508A2003608A3004C
:100330009730A600A701341023082706A10026083D
:10034000A2022708031C270FA3028A110A12A11F69
:10035000AF2923082706A100A11BAF293414341CA0
:10036000B429A31B3410B629A31B34143418B9299B
:10037000BA29A015A01DEA293508B7003608B8002B
:10038000A601A7012608B7022708031C270FB802F9
:100390003708A4003808A5004B30A200A3010820AC
:1003A0002408B7002508B8003708A2003808A300C1
:1003B0009630A600A7018A110A1238202208B70039
:1003C0002308B800A601A7012608B70727080318C5
:1003D000270FB80720148A110A122019F0292010BB
:1003E000201CF929201AF8292016BB01BC01A016EF
:1003F000FA2920123B08BD003C08BE003B08A200C1
:100400003C08A3001C30A600A701341023082706CF
:10041000A1002608A2022708031C270FA302A11F80
:10042000172A23082706A100A11B172A3414341CFD
:100430001C2AA31B34101E2AA31B34143418212A8F
:10044000222A252AFF30BD00BE00A01E362AA01198
:10045000831083169818831483128318A015831CA5
:10046000A011A019362AFF30BD00BE00BF01C00197
:100470003F083D02031D432A40083E02031D432A54
:100480007430C100C2010130BF00C0013F083D020D
:10049000031D512A40083E02031D512A6530C10048
:1004A000C2010230BF00C0013F083D02031D5F2AA8
:1004B00040083E02031D5F2A6D30C100C2010330B7
:1004C000BF00C0013F083D02031D6D2A40083E02E7
:1004D000031D6D2A7030C100C2010430BF00C0018D
:1004E0003F083D02031D7B2A40083E02031D7B2A74
:1004F0006530C100C2010530BF00C0013F083D02A8
:10050000031D892A40083E02031D892A7230C1005A
:10051000C2010630BF00C0013F083D02031D972AFB
:1005200040083E02031D972A6130C100C201073016
:10053000BF00C0013F083D02031DA52A40083E023E
:10054000031DA52A7430C100C2010830BF00C001DC
:100550003F083D02031DB32A40083E02031DB32A93
:100560007530C100C2010930BF00C0013F083D0223
:10057000031DC12A40083E02031DC12A7230C1007A
:10058000C2010A30BF00C0013F083D02031DCF2A4F
:1005900040083E02031DCF2A6530C100C2010B3066
:1005A000BF00C0013F083D02031DDD2A40083E0296
:1005B000031DDD2A2030C100C2010C30BF00C00184
:1005C0003F083D02031DEB2A40083E02031DEB2AB3
:1005D0006630C100C2010D30BF00C0013F083D02BE
:1005E000031DF92A40083E02031DF92A7230C1009A
:1005F000C2010E30BF00C0013F083D02031D072BA2
:1006000040083E02031D072B6F30C100C2010F30AE
:10061000BF00C0013F083D02031D152B40083E02EC
:10062000031D152B6D30C100C2011030BF00C00189
:100630003F083D02031D232B40083E02031D232BD0
:100640002030C100C2011130BF00C0013F083D028F
:10065000031D312B40083E02031D312B4C30C100DD
:10066000C2011230BF00C0013F083D02031D3F2BF5
:1006700040083E02031D3F2B4D30C100C201133024
:10068000BF00C0013F083D02031D4D2B40083E0244
:10069000031D4D2B3330C100C2011430BF00C00117
:1006A0003F083D02031D5B2B40083E02031D5B2BF0
:1006B0003530C100C2011530BF00C0013F083D0206
:1006C000031D692B40083E02031D692B3A30C1000F
:1006D000C2011630BF00C0013F083D02031D772B49
:1006E00040083E02031D772B2030C100C2011730A5
:1006F000BF00C001A0113F083D02031D842B40082C
:100700003E02031D842BA015A01DCA2B3708C30071
:100710003808C40020176430BF00C0014308A2009D
:100720004408A3003F08A6004008A700382022087C
:10073000C1002308C2003F08A4004008A5004108EA
:10074000A2004208A3008A110A1208202408BF0050
:100750002508C0003F08C3024008031C400FC40224
:100760003030BF00C0013F08C10740080318400FE8
:10077000C2073F0841028A110A12031DC92B400813
:100780004202031DC92B201FC82B2030C100C2010B
:10079000CA2B20131830BF00C001A0113F083D0232
:1007A000031DD72B40083E02031DD72BA015A01D0B
:1007B000182C0A30BF00C0014308A2004408A3005F
:1007C0003F08A6004008A70038202208C1002308DF
:1007D000C2003F08A4004008A5004108A20042084A
:1007E000A3008A110A1208202408BF002508C000AF
:1007F0003F08C3024008031C400FC4023030BF0052
:10080000C0013F08C10740080318400FC2073F0856
:1008100041028A110A12031D172C40084202031DCF
:10082000172C201F162C2030C100C201182C2013B9
:100830001930BF00C001A0113F083D02031D252C47
:1008400040083E02031D252CA015A01D552C01308B
:10085000BF00C0014308A2004408A3003F08A6004F
:100860004008A70038202208C1002308C2003F0822
:10087000A4004008A5004108A2004208A3008A1174
:100880000A1208202408BF002508C0003F08C30240
:100890004008031C400FC4023030BF00C0013F08B5
:1008A000C10740080318400FC2071A30BF00C0013B
:1008B0003F083D028A110A12031D652C40083E02C2
:1008C000031D652C0D30C100C2011B30BF00C001EB
:1008D0003F083D02031D732C40083E02031D732C8C
:1008E0000A30C100C2013D08A2003E08A300A601D3
:1008F000A701341023082706A1002608A202270812
:10090000031C270FA302A11F8B2C23082706A1007D
:10091000A11B8B2C3414341C902CA31B3410922C50
:10092000A31B34143418952C962CA12CA01EA12C9A
:100930008316981C982C831241089900BB0A03194E
:10094000BC0A20103B08A2003C08A3001C30A600F3
:10095000A701341023082706A1002608A2022708B1
:10096000031C270FA302A11FBB2C23082706A100ED
:10097000A11BBB2C3414341CC02CA31B3410C22C60
:10098000A31B34143418C52CC92CA01EC82C201449
:10099000CA2CA0122014201CED2C2830A200A30188
:1009A000341023083806A1003708A2023808031CB7
:1009B000380FA302A11FE22C23083806A100A11BB7
:1009C000E22C3414341CE72CA31B3410E92CA31B99
:1009D0003414341CEC2CED2C2010831020188314BC
:0C09E00083180614831C0610DD28F52C7B
:02400E00723FFF
:00000001FF
