:020000040000FA
:1000000083018A0100003829090000000000000077
:10001000003023078A001030220703188A0A820062
:100020003F3406345B344F3466346D347D340734EA
:100030007F346F3477347C3439345E3479347134BE
:10004000BF348634DB34CF34E634ED34FD348734CA
:10005000FF34EF34F734FC34B934DE34F934F1349E
:100060000034B03422344E346D34D234DA34203497
:1000700039340F34723470340C3440348034523498
:100080003F3406345B344F3466346D347D3407348A
:100090007F346F3409340D34613441344334D33404
:1000A0009F3477347C3439345E34793471343D3460
:1000B000743430341E3475343834553454345C342C
:1000C0007334673433346D3478343E341C346A34DA
:1000D00076346E345B34393464340F34233408346A
:1000E00020345F347C3458345E347B3471346F3464
:1000F000743410340E3475341834553454345C343C
:100100007334673450346D3478343E341C346A347C
:1001100076346E345B34393430340F340134003487
:100120006334A701A6010310A50CA40C1030AE0087
:10013000031CA0282208A6070318A70A2308A7075C
:100140000310A70CA60CA50CA40CAE0B9828080055
:10015000A801A7010310A60CA50CA40C1830AE0032
:10016000031CB8282208A70723080318230FA80791
:100170000310A80CA70CA60CA50CA40CAE0BB02861
:10018000080023082706A100A71FCB28A609A70956
:10019000A60A0319A70AA31FD228A209A309A20A23
:1001A0000319A30AA901A80103101130AE00A20D82
:1001B000A30DAE030319F028A80DA90D2608A80267
:1001C000031CA9032708A902A91FEE282608A807CF
:1001D0000318A90A2708A9070310D7280314D7284A
:1001E000A11F0800A209A309A20A0319A30A080073
:1001F00024082706A1008A110A12A71F0429A609AC
:10020000A709A60A0319A70AA41F0E29A209A30970
:10021000A409A20A0319A30A0319A40AA901A8019F
:1002200003101930AE00A20DA30DA40DAE030319E7
:100230002D29A80DA90D2608A802031CA90327082B
:10024000A902A91F2B292608A8070318A90A27080D
:10025000A9070310132903141329A11F0800A209D9
:10026000A309A409A20A0319A30A0319A40A0800EE
:100270006400713095000230960000308E0000302E
:100280008F00313090000B3097005F30A00021309C
:1002900084008001840AA00B4929831687309F00BF
:1002A00083120030850000308600003087008316FE
:1002B000FD308500FF308600FF30870081138312F8
:1002C0000C19A0170C1DA0130C1D64290C1164003F
:1002D00020186C292014B301A014A01C97293408FD
:1002E000A2000230A600351022082606A10026082A
:1002F000A202A11F812922082606A100A11B812993
:100300003514351C8629A21B35108829A21B3514EB
:1003100035188B298D29B40A9329B4012019922903
:1003200020159329201120199629A0109829B4018D
:10033000A01CA029A01D9E29A0109F29A015A129BD
:10034000A011A01CC529A010201AC4292016B30A88
:100350000430A200351022083306A1003308A2029F
:10036000A11FB82922083306A100A11BB829351402
:10037000351CBD29A21B3510BF29A21B3514351809
:10038000C229C429B301A014C6292012A014A01C9C
:10039000CB29831686018312A01CD1298316F03045
:1003A00087008312A014A01C082A3608A200370870
:1003B000A300E830A6000330A70035102308270665
:1003C000A1002608A2022708031C270FA302A11FD1
:1003D000EF2923082706A100A11BEF293514351C9E
:1003E000F429A31B3510F629A31B35143518F92958
:1003F000FD29B60A0319B70A042AB601B701A01AE3
:10040000032AA016042AA012A01A072AA0100A2A5A
:10041000B601B701A01C222A81309F0083168030CC
:100420009F0083122130A300A30B142A1F151F194C
:10043000172A1E08B90083161E088312B8008316F7
:1004400080309F008312A014A01CD72A20133808E4
:10045000A2003908A3002D30A6000130A7003510F6
:1004600023082706A1002608A2022708031C270F3D
:10047000A302A11F412A23082706A100A11B412A8C
:100480003514351C462AA31B3510482AA31B3514E6
:1004900035184B2A4C2A2017201F7E2A3808BA000C
:1004A0003908BB009630A600A7012608BA02270823
:1004B000031C270FBB023A08A4003B08A5004A30E2
:1004C000A200A30191202408BA002508BB003A0825
:1004D000A2003B08A3009630A600A7018A110A12C9
:1004E000C1202208BA002308BB004930A600A7019A
:1004F0002608BA0727080318270FBB072013380858
:10050000A2003908A3009730A600A70135102308E0
:100510002706A1002608A2022708031C270FA30212
:100520008A110A12A11F9A2A23082706A100A11BDB
:100530009A2A3514351C9F2AA31B3510A12AA31B08
:1005400035143518A42AA52A2017201FD72A3808C1
:10055000BA003908BB000230A600A7012608BA027B
:100560002708031C270FBB023A08A4003B08A5007C
:100570004830A200A30191202408BA002508BB003E
:100580003A08A2003B08A3009430A600A7018A11F4
:100590000A12C1202208BA002308BB000130A600BD
:1005A000A7012608BA0727080318270FBB07A014BE
:1005B0008A110A12A01CEC2A6430C000C1013A085A
:1005C000A2003B08A3004008A6004108A700C120E4
:1005D0002208C2002308C300A0148A110A12A01C1A
:1005E000012B0A30C000C1013A08A2003B08A30059
:1005F0004008A6004108A700C1202208C400230823
:10060000C500A0148A110A12A01C162B0A30C000C3
:10061000C1014408A2004508A3004008A600410803
:10062000A700C1202808C6002908C700A0148A1105
:100630000A12A01C2B2B0A30C000C1013A08A200EC
:100640003B08A3004008A6004108A700C1202808D5
:10065000C8002908C900A0148A110A12A01C502B36
:100660001E30A200A301351023083B06A1003A0862
:10067000A2023B08031C3B0FA302A11F452B23082A
:100680003B06A100A11B452B3514351C4A2BA31B8F
:1006900035104C2BA31B3514351C4F2B502BA010A1
:1006A0008310A018831483188514831C8510A0144C
:1006B000A01C7E2B3A08A2003B08A3006430A600D1
:1006C000A701351023082706A1002608A202270843
:1006D000031C270FA302A11F732B23082706A100C9
:1006E000A11B732B3514351C782BA31B35107A2BCB
:1006F000A31B351435187D2B7E2BA010A01C882B36
:100700000130A60033082602031D872B882BA0107A
:10071000A01CEF2BB030CA00CB0142084A02031DD7
:10072000992B43084B02031D992B8030C200C30153
:10073000E62B4208A2004308A300A601A70135103A
:1007400023082706A1002608A2022708031C270F5A
:10075000A302A11FB12B23082706A100A11BB12BC7
:100760003514351CB62BA31B3510B82BA31B351421
:100770003518BB2BBF2B2030C200C301E62B42082B
:10078000A2004308A3008130A600A701351023086A
:100790002706A1002608A2022708031C270FA30290
:1007A000A11FD82B23082706A100A11BD82B351485
:1007B000351CDD2BA31B3510DF2BA31B351435187F
:1007C000E22BE32BE62B2030C200C3014208A2003B
:1007D0004308A3000820CA00CB014A0886008A11FA
:1007E0000A12A01CF42B8701A01CF82B01308700F3
:1007F000A014A01C1F2C3A08A2003B08A3000A303A
:10080000A600A701351023082706A1002608A2028A
:100810002708031C270FA302A11F142C2308270657
:10082000A100A11B142C3514351C192CA31B351049
:100830001B2CA31B351435181E2C1F2CA010A01C1C
:10084000292C0230A60033082602031D282C292C4F
:10085000A010A01C902CB030CA00CB0146084A0260
:10086000031D3A2C47084B02031D3A2C8030C6006A
:10087000C701872C4608A2004708A300A601A701CC
:10088000351023082706A1002608A2022708031C0A
:10089000270FA302A11F522C23082706A100A11B8A
:1008A000522C3514351C572CA31B3510592CA31B67
:1008B000351435185C2C602C2030C600C701872CFD
:1008C0004608A2004708A3008130A600A701351002
:1008D00023082706A1002608A2022708031C270FC9
:1008E000A302A11F792C23082706A100A11B792CA4
:1008F0003514351C7E2CA31B3510802CA31B3514FE
:100900003518832C842C872C2030C600C70146085C
:10091000A2004708A3000820CA00CB014A088600AD
:100920008A110A12A01C952C8701A01C992C023058
:100930008700A014A01CA42C0330A60033082602B4
:10094000031DA32CA42CA010A01C0B2DB030CA009A
:10095000CB0148084A02031DB52C49084B02031D70
:10096000B52C8030C800C901022D4808A2004908F2
:10097000A300A601A701351023082706A100260819
:10098000A2022708031C270FA302A11FCD2C2308B6
:100990002706A100A11BCD2C3514351CD22CA31B7E
:1009A0003510D42CA31B35143518D72CDB2C203054
:1009B000C800C901022D4808A2004908A3008130DF
:1009C000A600A701351023082706A1002608A202C9
:1009D0002708031C270FA302A11FF42C23082706B6
:1009E000A100A11BF42C3514351CF92CA31B3510C8
:1009F000FB2CA31B35143518FE2CFF2C022D2030A8
:100A0000C800C9014808A2004908A3000820CA007C
:100A1000CB014A0886008A110A12A01C102D8701FA
:100A2000A01C142D04308700A014A01C1F2D04301E
:100A3000A60033082602031D1E2D1F2DA010A01C8A
:100A4000232D39308600A01C262D8701A01C2A2DBD
:080A5000083087005F292B2DFF
:02400E00723FFF
:00000001FF
