:020000040000FA
:1000000083018A01000008280900000000000000A8
:1000100064006A3095001830960000308E00003081
:100020008F00313090000B3097005F30A0002130FE
:1000300084008001840AA00B1928831687309F0052
:100040008312003085000030860000308700831660
:10005000FF308500FF308600BF30870081132030DD
:100060009900203098008312903098000C193314B6
:100070000C1D33100C1D3A280C1164002014201C98
:1000800045288C1A20148C1E20102018A014201C27
:10009000A0102014A0184D28201020112018A01501
:1000A000201CA011A01D69288C1AA0158C1EA0115F
:1000B000A01D6928B401B5018C1E69281A08B40076
:1000C000981865281819652869281A081A08181236
:1000D0001816A01D6C2820152018A015201CA01192
:1000E000A01D78288316981C722883123408990062
:1000F000831083169818831483128318A011831C0D
:10010000A015A01D8428201520192014201D2010C2
:100110002014201C8E280D30B600B701201C932817
:100120000A30B800B9012014A01897282010201C0C
:10013000A328201AA3283C08BA003D08BB003E08AB
:10014000BC003F08BD0020182016201C2012201CD7
:10015000AD283408BE003508BF002014201CBD287F
:100160003030A600A7013E082602031DBC283F0828
:100170002702031DBC28BD282010201CC528A01E56
:10018000C3282010C428A016C628A01220132018A7
:10019000A017201CA013A01FD3288316981CCD28BD
:1001A00083123608990083108316981883148312DB
:1001B0008318A013831CA017A01FDF282017201866
:1001C000A017201CA013A01FEB288316981CE5285D
:1001D00083123808990083108316981883148312A9
:1001E0008318A013831CA017A01FF728201720181E
:1001F000A017201CA013A01F03298316981CFD28FC
:1002000083123A0899008310831698188314831276
:100210008318A013831CA017A01F0F2920172018D4
:10022000A017201CA013A01F1B298316981C15299A
:1002300083123C0899008310831698188314831244
:100240008318A013831CA017A01F27292017201B89
:0A0250002014201F201036282C294E
:02400E00723FFF
:00000001FF
