:020000040000FA
:1000000083018A01000008280900000000000000A8
:1000100064006A3095001830960000308E00003081
:100020008F00313090000B3097005F30A0002130FE
:1000300084008001840AA00B1928831687309F0052
:100040008312003085000030860000308700831660
:10005000FF308500FF308600FF3087008113831258
:100060000C19A0160C1DA0120C1D34280C116400D4
:100070002014201C3D28831686018312201C422850
:100080008316870183122014201C4C28A01C4A28A8
:1000900020104B28A0144D28A010201C51280130FE
:1000A0008600201C5528803087002014201C8028C2
:1000B0003308A2000230A600201322082606A10061
:1000C0002608A202A11F6A2822082606A100A11B59
:1000D0006A282017201F6F28A21B20137128A21B3B
:1000E0002017201B74287628B30A7C28B301201916
:1000F0007B2820157C28201120197F28201081289A
:10010000B301201C8928A01D872820108828A0154D
:100110008A28A0112012201C97280608A20002306D
:10012000A100220DA20DA10B912822088600201CFF
:10013000A3280708A2000130A100220CA20CA10BE9
:100140009D2822088700201A2014201E20102F2806
:02015000A828DD
:02400E00723FFF
:00000001FF
