:020000040000FA
:1000000083018A0100003829090000000000000077
:10001000003023078A001030220703188A0A820062
:100020003F3406345B344F3466346D347D340734EA
:100030007F346F3477347C3439345E3479347134BE
:10004000BF348634DB34CF34E634ED34FD348734CA
:10005000FF34EF34F734FC34B934DE34F934F1349E
:100060000034B03422344E346D34D234DA34203497
:1000700039340F34723470340C3440348034523498
:100080003F3406345B344F3466346D347D3407348A
:100090007F346F3409340D34613441344334D33404
:1000A0009F3477347C3439345E34793471343D3460
:1000B000743430341E3475343834553454345C342C
:1000C0007334673433346D3478343E341C346A34DA
:1000D00076346E345B34393464340F34233408346A
:1000E00020345F347C3458345E347B3471346F3464
:1000F000743410340E3475341834553454345C343C
:100100007334673450346D3478343E341C346A347C
:1001100076346E345B34393430340F340134003487
:100120006334A701A6010310A50CA40C1030AE0087
:10013000031CA0282208A6070318A70A2308A7075C
:100140000310A70CA60CA50CA40CAE0B9828080055
:10015000A801A7010310A60CA50CA40C1830AE0032
:10016000031CB8282208A70723080318230FA80791
:100170000310A80CA70CA60CA50CA40CAE0BB02861
:10018000080023082706A100A71FCB28A609A70956
:10019000A60A0319A70AA31FD228A209A309A20A23
:1001A0000319A30AA901A80103101130AE00A20D82
:1001B000A30DAE030319F028A80DA90D2608A80267
:1001C000031CA9032708A902A91FEE282608A807CF
:1001D0000318A90A2708A9070310D7280314D7284A
:1001E000A11F0800A209A309A20A0319A30A080073
:1001F00024082706A1008A110A12A71F0429A609AC
:10020000A709A60A0319A70AA41F0E29A209A30970
:10021000A409A20A0319A30A0319A40AA901A8019F
:1002200003101930AE00A20DA30DA40DAE030319E7
:100230002D29A80DA90D2608A802031CA90327082B
:10024000A902A91F2B292608A8070318A90A27080D
:10025000A9070310132903141329A11F0800A209D9
:10026000A309A409A20A0319A30A0319A40A0800EE
:1002700064006A3095001830960000308E0000301F
:100280008F00313090000B3097005F30A00021309C
:1002900084008001840AA00B4929831687309F00BF
:1002A00083120030850000308600003087008316FE
:1002B000FF308500FF308600BF308700811320307B
:1002C0009900203098008312903098000C19201665
:1002D0000C1D20120C1D6A290C1164002014201C16
:1002E00073298316860183122014201C7B298C1A03
:1002F00020148C1E2010A01020182015201C201166
:10030000201D97298C1A20158C1E2011201D97293D
:10031000B301B4018C1E97291A08B30098189329C9
:100320001819932997291A081A0818121816201D47
:100330009A29A01420182015201C2011201DA62960
:100340008316981CA0298312330899008310831602
:1003500098188314831283182011831C2015201DE4
:10036000B229A014A0182014A01C20102014201CB6
:10037000ED2EA0113308A2003408A3006730A600B8
:10038000A701A01223082706A1002608A202270819
:10039000031C270FA302A11FD32923082706A100AE
:1003A000A11BD329A016A01ED829A31BA012DA29AD
:1003B000A31BA016A01ADD29DE29A015A01D102A56
:1003C0003308B5003408B6006530A600A70126083A
:1003D000B5022708031C270FB6023508A40036080B
:1003E000A5000130A200A30191202408B500250832
:1003F000B6003508A2003608A3000130A600A70108
:100400008A110A12C1202208B5002308B6000E3056
:10041000A600A7012608B50727080318270FB60767
:10042000A0113308A2003408A3006630A600A7017B
:10043000A01223082706A1002608A2022708031CF1
:10044000270FA3028A110A12A11F2C2A23082706AC
:10045000A100A11B2C2AA016A01E312AA31BA012AA
:10046000332AA31BA016A01A362A372AA015A01DCE
:10047000692A3308B5003408B6006430A600A70125
:100480002608B5022708031C270FB6023508A4006A
:100490003608A5000130A200A30191202408B50070
:1004A0002508B6003508A2003608A3000130A600D2
:1004B000A7018A110A12C1202208B5002308B6003C
:1004C0000D30A600A7012608B50727080318270F37
:1004D000B607A0113308A2003408A3006530A600B7
:1004E000A701A01223082706A1002608A2022708B8
:1004F000031C270FA3028A110A12A11F852A2308B1
:100500002706A100A11B852AA016A01E8A2AA31BCC
:10051000A0128C2AA31BA016A01A8F2A902AA0151D
:10052000A01DC22A3308B5003408B6006330A60007
:10053000A7012608B5022708031C270FB6023508B5
:10054000A4003608A5000130A200A30191202408D0
:10055000B5002508B6003508A2003608A300013012
:10056000A600A7018A110A12C1202208B50023089B
:10057000B6000C30A600A7012608B5072708031807
:10058000270FB607A0113308A2003408A300643077
:10059000A600A701A01223082706A1002608A20290
:1005A0002708031C270FA3028A110A12A11FDE2AA3
:1005B00023082706A100A11BDE2AA016A01EE32AFD
:1005C000A31BA012E52AA31BA016A01AE82AE92A59
:1005D000A015A01D1B2B3308B5003408B6006230EF
:1005E000A600A7012608B5022708031C270FB6029C
:1005F0003508A4003608A5000130A200A30191200F
:100600002408B5002508B6003508A2003608A30066
:100610000130A600A7018A110A12C1202208B500E4
:100620002308B6000B30A600A7012608B507270847
:100630000318270FB607A0113308A2003408A3003F
:100640006330A600A701A01223082706A1002608F0
:10065000A2022708031C270FA3028A110A12A11F56
:10066000372B23082706A100A11B372BA016A01E9D
:100670003C2BA31BA0123E2BA31BA016A01A412BA0
:10068000422BA015A01D742B3308B5003408B6000A
:100690006130A600A7012608B5022708031C270F12
:1006A000B6023508A4003608A5000130A200A30157
:1006B00091202408B5002508B6003508A2003608A8
:1006C000A3000130A600A7018A110A12C120220846
:1006D000B5002308B6000A30A600A7012608B50712
:1006E00027080318270FB607A0113308A200340803
:1006F000A3006230A600A701A01223082706A100CC
:100700002608A2022708031C270FA3028A110A1237
:10071000A11F902B23082706A100A11B902BA01638
:10072000A01E952BA31BA012972BA31BA016A01AEB
:100730009A2B9B2BA015A01DCD2B3308B500340898
:10074000B6003930A600A7012608B5022708031C09
:10075000270FB6023508A4003608A5000130A20014
:10076000A30191202408B5002508B6003508A20091
:100770003608A3002830A600A7018A110A12C1205A
:100780002208B5002308B6000930A600A7012608F4
:10079000B50727080318270FB607A0113308A200D2
:1007A0003408A3003A30A600A701A01223082706A8
:1007B000A1002608A2022708031C270FA3028A1102
:1007C0000A12A11FE92B23082706A100A11BE92B70
:1007D000A016A01EEE2BA31BA012F02BA31BA0168D
:1007E000A01AF32BF42BA015A01D262C3308B5005E
:1007F0003408B6003830A600A7012608B50227083D
:10080000031C270FB6023508A4003608A5000130E6
:10081000A200A30191202408B5002508B6003508E0
:10082000A2003608A3000130A600A7018A110A120F
:10083000C1202208B5002308B6000830A600A70191
:100840002608B50727080318270FB607A011330895
:10085000A2003408A3003930A600A701A012230883
:100860002706A1002608A2022708031C270FA302BF
:100870008A110A12A11F422C23082706A100A11BDE
:10088000422CA016A01E472CA31BA012492CA31B70
:10089000A016A01A4C2C4D2CA015A01D7F2C33089F
:1008A000B5003408B6003730A600A7012608B50207
:1008B0002708031C270FB6023508A4003608A50038
:1008C0000130A200A30191202408B5002508B6003C
:1008D0003508A2003608A3000130A600A7018A113E
:1008E0000A12C1202208B5002308B6000730A6006E
:1008F000A7012608B50727080318270FB607A01178
:100900003308A2003408A3003830A600A701A012C3
:1009100023082706A1002608A2022708031C270F88
:10092000A3028A110A12A11F9B2C23082706A100EB
:10093000A11B9B2CA016A01EA02CA31BA012A22CB6
:10094000A31BA016A01AA52CA62CA015A01DD82C60
:100950003308B5003408B6003630A600A7012608D3
:10096000B5022708031C270FB6023508A400360875
:10097000A5000130A200A30191202408B50025089C
:10098000B6003508A2003608A3000130A600A70172
:100990008A110A12C1202208B5002308B6000630C9
:1009A000A600A7012608B50727080318270FB607D2
:1009B000A0113308A2003408A3003730A600A70115
:1009C000A01223082706A1002608A2022708031C5C
:1009D000270FA3028A110A12A11FF42C230827064D
:1009E000A100A11BF42CA016A01EF92CA31BA01281
:1009F000FB2CA31BA016A01AFE2CFF2CA015A01DDB
:100A0000312D3308B5003408B6003530A600A701F3
:100A10002608B5022708031C270FB6023508A400D4
:100A20003608A5000130A200A30191202408B500DA
:100A30002508B6003508A2003608A3000130A6003C
:100A4000A7018A110A12C1202208B5002308B600A6
:100A50000530A600A7012608B50727080318270FA9
:100A6000B607A0113308A2003408A3003630A60050
:100A7000A701A01223082706A1002608A202270822
:100A8000031C270FA3028A110A12A11F4D2D230850
:100A90002706A100A11B4D2DA016A01E522DA31BA1
:100AA000A012542DA31BA016A01A572D582DA01527
:100AB000A01D8A2D3308B5003408B6003430A600D6
:100AC000A7012608B5022708031C270FB602350820
:100AD000A4003608A5000130A200A301912024083B
:100AE000B5002508B6003508A2003608A30001307D
:100AF000A600A7018A110A12C1202208B500230806
:100B0000B6000430A600A7012608B5072708031879
:100B1000270FB607A0113308A2003408A300353010
:100B2000A600A701A01223082706A1002608A202FA
:100B30002708031C270FA3028A110A12A11FA62D42
:100B400023082706A100A11BA62DA016A01EAB2DD1
:100B5000A31BA012AD2DA31BA016A01AB02DB12D62
:100B6000A015A01DE32D3308B5003408B6003330BE
:100B7000A600A7012608B5022708031C270FB60206
:100B80003508A4003608A5000130A200A301912079
:100B90002408B5002508B6003508A2003608A300D1
:100BA0000130A600A7018A110A12C1202208B5004F
:100BB0002308B6000330A600A7012608B5072708BA
:100BC0000318270FB607A0113308A2003408A300AA
:100BD0003430A600A701A01223082706A10026088A
:100BE000A2022708031C270FA3028A110A12A11FC1
:100BF000FF2D23082706A100A11BFF2DA016A01E74
:100C0000042EA31BA012062EA31BA016A01A092EA9
:100C10000A2EA015A01D3C2E3308B5003408B600DE
:100C20003230A600A7012608B5022708031C270FAB
:100C3000B6023508A4003608A5000130A200A301C1
:100C400091202408B5002508B6003508A200360812
:100C5000A3000130A600A7018A110A12C1202208B0
:100C6000B5002308B6000230A600A7012608B50784
:100C700027080318270FB607A0113308A20034086D
:100C8000A3003330A600A701A01223082706A10065
:100C90002608A2022708031C270FA3028A110A12A2
:100CA000A11F582E23082706A100A11B582EA0160D
:100CB000A01E5D2EA31BA0125F2EA31BA016A01AC0
:100CC000622E632EA015A01D952E3308B5003408A2
:100CD000B6003130A600A7012608B5022708031C7C
:100CE000270FB6023508A4003608A5000130A2007F
:100CF000A30191202408B5002508B6003508A200FC
:100D00003608A3000130A600A7018A110A12C120EB
:100D10002208B5002308B6000130A600A701260866
:100D2000B50727080318270FB607A0113308A2003C
:100D30003408A3003230A600A701A012230827061A
:100D4000A1002608A2022708031C270FA3028A116C
:100D50000A12A11FB12E23082706A100A11BB12E44
:100D6000A016A01EB62EA31BA012B82EA31BA01661
:100D7000A01ABB2EBC2EA015A01DED2E3308B50069
:100D80003408B6003030A600A7012608B5022708AF
:100D9000031C270FB6023508A4003608A500013051
:100DA000A200A30191202408B5002508B60035084B
:100DB000A2003608A3000130A600A7018A110A127A
:100DC000C1202208B5002308B600A601A701260805
:100DD000B50727080318270FB60720148A110A122F
:100DE000201C572FB030BB00BC0135083B02031D4F
:100DF000012F36083C02031D012F8030B500B601DB
:100E00004E2F3508A2003608A300A601A701A012A4
:100E100023082706A1002608A2022708031C270F83
:100E2000A302A11F192F23082706A100A11B192F18
:100E3000A016A01E1E2FA31BA012202FA31BA016BE
:100E4000A01A232F272F2030B500B6014E2F3508CA
:100E5000A2003608A3008130A600A701A012230833
:100E60002706A1002608A2022708031C270FA302B9
:100E7000A11F402F23082706A100A11B402FA01669
:100E8000A01E452FA31BA012472FA31BA016A01A1C
:100E90004A2F4B2F4E2F2030B500B6013508A20047
:100EA0003608A3000820BB00BC013B0886008A115D
:060EB0000A1266295A2F08
:02400E00723FFF
:00000001FF
