:020000040000FA
:1000000083018A010000912809000000000000001F
:10001000003023078A001030220703188A0A820062
:100020003F3406345B344F3466346D347D340734EA
:100030007F346F3477347C3439345E3479347134BE
:10004000BF348634DB34CF34E634ED34FD348734CA
:10005000FF34EF34F734FC34B934DE34F934F1349E
:100060000034B03422344E346D34D234DA34203497
:1000700039340F34723470340C3440348034523498
:100080003F3406345B344F3466346D347D3407348A
:100090007F346F3409340D34613441344334D33404
:1000A0009F3477347C3439345E34793471343D3460
:1000B000743430341E3475343834553454345C342C
:1000C0007334673433346D3478343E341C346A34DA
:1000D00076346E345B34393464340F34233408346A
:1000E00020345F347C3458345E347B3471346F3464
:1000F000743410340E3475341834553454345C343C
:100100007334673450346D3478343E341C346A347C
:1001100076346E345B34393430340F340134003487
:10012000633464006A3095001830960000308E0009
:1001300000308F00313090000B3097005F30A0000E
:10014000213084008001840AA00BA2288316873006
:100150009F00831200308500003086000030870049
:100160008316FF308500FF308600DF308700811363
:1001700083120C19A0170C1DA0130C1DBD280C1107
:1001800064002018C62820140F30B300A014A01C4F
:10019000CF28201DCD28A010CE282015D028201132
:1001A000A01CD428831686018312A014851ED9288A
:1001B000A010A01CDC28A015A014051CE028A0108D
:1001C000A0182016A01C2012201EE728A011A01C99
:1001D000EB280F30B300A014A019EF28A010A01C2A
:1001E00019293408A2003230A6003510220826064C
:1001F000A1002608A202A11F032922082606A100A9
:10020000A11B03293514351C0829A21B35100A2906
:10021000A21B351435180D290F29B40A1529B4016C
:10022000A01A1429A0161529A012A01A1829A01086
:100230001A29B401A01C3B29201B3A292017A2012E
:10024000351022083306A1003308A202A11F2E296F
:1002500022083306A100A11B2E293514351C332991
:10026000A21B35103529A21B3514351838293A2917
:100270000130B3023C292013A201351022083306B5
:10028000A1003308A202A11F4B2922083306A100B6
:10029000A11B4B293514351C5029A21B351052299E
:1002A000A21B3514351855295729A0145829A01018
:1002B000A0195B29A0108310A01883148318871637
:1002C000831C8712A014A01CC629B030B600B70149
:1002D0003308A2000030A30022083602031D77294C
:1002E00023083702031D77298030B300BD29330866
:1002F000A200A601351022082606A1002608A202A7
:10030000A11F882922082606A100A11B88293514CF
:10031000351C8D29A21B35108F29A21B35143518C9
:10032000922995292030B300BD293308A20000305E
:10033000B31BFF30A3008130A600A70135102308AE
:100340002706A1002608A2022708031C270FA302E4
:10035000A11FB02923082706A100A11BB02935142D
:10036000351CB529A31B3510B729A31B3514351827
:10037000BA29BB29BD292030B3003308A2000030C0
:10038000A3000820B600B701360886008A110A12B9
:04039000B828C92997
:02400E00723FFF
:00000001FF
