:020000040000FA
:1000000083018A010000912809000000000000001F
:10001000003024078A001030230703188A0A820060
:100020003F3406345B344F3466346D347D340734EA
:100030007F346F3477347C3439345E3479347134BE
:10004000BF348634DB34CF34E634ED34FD348734CA
:10005000FF34EF34F734FC34B934DE34F934F1349E
:100060000034B03422344E346D34D234DA34203497
:1000700039340F34723470340C3440348034523498
:100080003F3406345B344F3466346D347D3407348A
:100090007F346F3409340D34613441344334D33404
:1000A0009F3477347C3439345E34793471343D3460
:1000B000743430341E3475343834553454345C342C
:1000C0007334673433346D3478343E341C346A34DA
:1000D00076346E345B34393464340F34233408346A
:1000E00020345F347C3458345E347B3471346F3464
:1000F000743410340E3475341834553454345C343C
:100100007334673450346D3478343E341C346A347C
:1001100076346E345B34393430340F340134003487
:1001200063346400713095000230960000308E0018
:1001300000308F00313090000B3097005F30A0000E
:10014000213084008001840AA00BA2288316873006
:100150009F00831200308500003086000030870049
:100160008316FF308500FF308600BF308700811383
:100170000F309900203098008312903098000C19AD
:10018000A1140C1DA1100C1DC3280C116400201813
:10019000CB282014B401A014A01CF6283508A30015
:1001A0000230A700211123082706A2002708A30276
:1001B000A21FE02823082706A200A21BE028211581
:1001C000211DE528A31B2111E728A31B21152119B7
:1001D000EA28EC28B50AF228B5012019F1282015E3
:1001E000F22820112019F528A010F728B501A01C2D
:1001F000FF28A01DFD28A010FE28A0150029A01191
:10020000A01C2429A010201A23292016B40A043087
:10021000A300211123083406A2003408A302A21F60
:10022000172923083406A200A21B17292115211D16
:100230001C29A31B21111E29A31B211521192129CA
:100240002329B401A01425292012A014A01C2A29B6
:10025000831686018312A01C30298316F030870094
:100260008312A014A01C38298C1AA0148C1EA01074
:10027000A018A016A01CA012A014A01A4029A0101B
:100280002013A018A017A01CA013A01F5C298C1A73
:10029000A0178C1EA013A01F5C29B601B7018C1EED
:1002A0005C291A08B60098185829181958295C2989
:1002B0001A081A0818121816A01F5F292017A0186C
:1002C000A017A01CA013A01F6B298316981C6529DA
:1002D00083123608990083108316981883148312AA
:1002E0008318A013831CA017A01F77292017201B99
:1002F000A014201FA010A014A01A7F29A010A01CD9
:1003000085293608B8003708B900A01C992921189A
:1003100099293C08BA003D08BB003E08BC003F08D4
:10032000BD004008BE004108BF003808C0003908C1
:10033000C100A0182114A01C2110A014A01CA829E1
:100340000130A70034082702031DA729A829A010FF
:10035000A01C0F2AB030C200C3013A084202031D9C
:10036000B9293B084302031DB9298030BA00BB01FB
:10037000062A3A08A3003B08A400A701A8012111FE
:1003800024082806A2002708A3022808031C280F17
:10039000A402A21FD12924082806A200A21BD12949
:1003A0002115211DD629A41B2111D829A41B2115F3
:1003B0002119DB29DF292030BA00BB01062A3A08BF
:1003C000A3003B08A4008130A700A8012111240844
:1003D0002806A2002708A3022808031C280FA4024D
:1003E000A21FF82924082806A200A21BF82921151B
:1003F000211DFD29A41B2111FF29A41B2115211951
:10040000022A032A062A2030BA00BB013A08A300B8
:100410003B08A4000820C200C301420886008A11DC
:100420000A12A01C142A8701A01C182A0130870078
:10043000A014A01C232A0230A70034082702031DA1
:10044000222A232AA010A01C8A2AB030C200C3018D
:100450003C084202031D342A3D084302031D342A8E
:100460008030BC00BD01812A3C08A3003D08A400E7
:10047000A701A801211124082806A2002708A30229
:100480002808031C280FA402A21F4C2A24082806AF
:10049000A200A21B4C2A2115211D512AA41B2111A7
:1004A000532AA41B21152119562A5A2A2030BC0090
:1004B000BD01812A3C08A3003D08A4008130A700AB
:1004C000A801211124082806A2002708A302280851
:1004D000031C280FA402A21F732A24082806A200C6
:1004E000A21B732A2115211D782AA41B21117A2A07
:1004F000A41B211521197D2A7E2A812A2030BC00C7
:10050000BD013C08A3003D08A4000820C200C301AF
:10051000420886008A110A12A01C8F2A8701A01C9B
:10052000932A02308700A014A01C9E2A0330A70043
:1005300034082702031D9D2A9E2AA010A01C052B0B
:10054000B030C200C3013E084202031DAF2A3F087B
:100550004302031DAF2A8030BE00BF01FC2A3E08C3
:10056000A3003F08A400A701A80121112408280620
:10057000A2002708A3022808031C280FA402A21F18
:10058000C72A24082806A200A21BC72A2115211D5C
:10059000CC2AA41B2111CE2AA41B21152119D12A52
:1005A000D52A2030BE00BF01FC2A3E08A3003F0828
:1005B000A4008130A700A801211124082806A20068
:1005C0002708A3022808031C280FA402A21FEE2A52
:1005D00024082806A200A21BEE2A2115211DF32AB9
:1005E000A41B2111F52AA41B21152119F82AF92A87
:1005F000FC2A2030BE00BF013E08A3003F08A40033
:100600000820C200C301420886008A110A12A01CF9
:100610000A2B8701A01C0E2B04308700A014A01CFD
:10062000192B0430A70034082702031D182B192B9F
:10063000A010A01C802BB030C200C30140084202B1
:10064000031D2A2B41084302031D2A2B8030C000C2
:10065000C101772B4008A3004108A400A701A8010D
:10066000211124082806A2002708A3022808031C39
:10067000280FA402A21F422B24082806A200A21BB6
:10068000422B2115211D472BA41B2111492BA41BF3
:10069000211521194C2B502B2030C000C101772B84
:1006A0004008A3004108A4008130A700A80121113F
:1006B00024082806A2002708A3022808031C280FE4
:1006C000A402A21F692B24082806A200A21B692BE2
:1006D0002115211D6E2BA41B2111702BA41B21158C
:1006E0002119732B742B772B2030C000C1014008D7
:1006F000A3004108A4000820C200C30142088600EC
:100700008A110A12A01C852B8701A01C892B083096
:060710008700BF288A2BC0
:02400E00723FFF
:00000001FF
